{
  "contractName": "Vote",
  "abi": [
    {
      "inputs": [
        {
          "internalType": "address",
          "name": "_tokenCA",
          "type": "address"
        }
      ],
      "payable": false,
      "stateMutability": "nonpayable",
      "type": "constructor"
    },
    {
      "constant": true,
      "inputs": [
        {
          "internalType": "uint256",
          "name": "",
          "type": "uint256"
        }
      ],
      "name": "Proposals",
      "outputs": [
        {
          "internalType": "bytes32",
          "name": "name",
          "type": "bytes32"
        },
        {
          "internalType": "uint256",
          "name": "voteCount",
          "type": "uint256"
        },
        {
          "internalType": "uint256",
          "name": "countOfAgree",
          "type": "uint256"
        }
      ],
      "payable": false,
      "stateMutability": "view",
      "type": "function"
    },
    {
      "constant": false,
      "inputs": [
        {
          "internalType": "bytes32[]",
          "name": "_proposals",
          "type": "bytes32[]"
        },
        {
          "internalType": "bool[]",
          "name": "_votedResult",
          "type": "bool[]"
        }
      ],
      "name": "voting",
      "outputs": [],
      "payable": false,
      "stateMutability": "nonpayable",
      "type": "function"
    }
  ],
  "bytecode": "0x608060405234801561001057600080fd5b506040516104b03803806104b08339818101604052602081101561003357600080fd5b8101908080519060200190929190505050806000806101000a81548173ffffffffffffffffffffffffffffffffffffffff021916908373ffffffffffffffffffffffffffffffffffffffff1602179055505061041c806100946000396000f3fe608060405234801561001057600080fd5b50600436106100365760003560e01c80636256dfc61461003b578063d1dbe7d814610187575b600080fd5b6101856004803603604081101561005157600080fd5b810190808035906020019064010000000081111561006e57600080fd5b82018360208201111561008057600080fd5b803590602001918460208302840111640100000000831117156100a257600080fd5b919080806020026020016040519081016040528093929190818152602001838360200280828437600081840152601f19601f8201169050808301925050505050505091929192908035906020019064010000000081111561010257600080fd5b82018360208201111561011457600080fd5b8035906020019184602083028401116401000000008311171561013657600080fd5b919080806020026020016040519081016040528093929190818152602001838360200280828437600081840152601f19601f8201169050808301925050505050505091929192905050506101d7565b005b6101b36004803603602081101561019d57600080fd5b81019080803590602001909291905050506103b0565b60405180848152602001838152602001828152602001935050505060405180910390f35b60008060009054906101000a900473ffffffffffffffffffffffffffffffffffffffff16905060008173ffffffffffffffffffffffffffffffffffffffff166370a08231336040518263ffffffff1660e01b8152600401808273ffffffffffffffffffffffffffffffffffffffff1673ffffffffffffffffffffffffffffffffffffffff16815260200191505060206040518083038186803b15801561027c57600080fd5b505afa158015610290573d6000803e3d6000fd5b505050506040513d60208110156102a657600080fd5b8101908080519060200190929190505050905060008090505b6001805490508110156103a9576000600182815481106102db57fe5b90600052602060002090600302016000015490506000600183815481106102fe57fe5b906000526020600020906003020160010154905060006001848154811061032157fe5b906000526020600020906003020160020154905060008090505b88518110156103985788818151811061035057fe5b602002602001015184141561038b5785830192506001151588828151811061037457fe5b60200260200101511515141561038a5785820191505b5b808060010191505061033b565b5050505080806001019150506102bf565b5050505050565b600181815481106103bd57fe5b9060005260206000209060030201600091509050806000015490806001015490806002015490508356fea265627a7a72315820597a9db64d0ed17764d280f3c4ff44120ad87fc9a7d88346a3403a5c186aa0d764736f6c634300050d0032",
  "source": "pragma solidity ^0.5.0;\n\n\ncontract TokenInterface {\n  function balanceOf(address account) external view returns (uint256);\n}\n\ncontract Vote {\n    address tokenCA;\n    \n    // 이것은 단일 제안에 대한 유형입니다.\n    struct Proposal {\n        bytes32 name;   // 간단한 명칭 (최대 32바이트)\n        uint voteCount; // 누적 투표 수\n        uint countOfAgree; // 찬성 수\n    }\n    \n    Proposal[] public Proposals; // Proposals에 Proposal을 배열로 기록한다\n\n    \n    constructor(address _tokenCA) public {\n           tokenCA = _tokenCA;\n    }\n    \n    function voting(bytes32[] memory _proposals, bool[] memory _votedResult) public {\n        \n     TokenInterface TokenContract = TokenInterface(tokenCA);\n     \n     uint balance = TokenContract.balanceOf(msg.sender);\n    \n     for (uint i = 0; i < Proposals.length; i++){\n        bytes32 name = Proposals[i].name;\n        uint voteCount = Proposals[i].voteCount;\n        uint countOfAgree = Proposals[i].countOfAgree;\n        \n        for (uint j = 0; j < _proposals.length; j++) {\n            if(name == _proposals[j]){\n                voteCount += balance;\n                if(_votedResult[j] == true){\n                    countOfAgree += balance;\n                }\n            }\n        }\n     }\n  }\n}",
  "sourcePath": "/Users/kimkihong/project/ethereum/joux2/contracts/Vote.sol",
  "compiler": {
    "name": "solc",
    "version": "0.5.13+commit.5b0b510c.Emscripten.clang"
  },
  "schemaVersion": "3.0.16",
  "updatedAt": "2019-11-19T02:41:07.423Z",
  "devdoc": {
    "methods": {}
  },
  "userdoc": {
    "methods": {}
  }
}