{
  "contractName": "Vote",
  "abi": [
    {
      "inputs": [
        {
          "internalType": "bytes32[]",
          "name": "_proposals",
          "type": "bytes32[]"
        },
        {
          "internalType": "address",
          "name": "_tokenCA",
          "type": "address"
        }
      ],
      "payable": false,
      "stateMutability": "nonpayable",
      "type": "constructor"
    },
    {
      "constant": true,
      "inputs": [
        {
          "internalType": "uint256",
          "name": "",
          "type": "uint256"
        }
      ],
      "name": "Proposals",
      "outputs": [
        {
          "internalType": "bytes32",
          "name": "name",
          "type": "bytes32"
        },
        {
          "internalType": "uint256",
          "name": "voteCount",
          "type": "uint256"
        },
        {
          "internalType": "uint256",
          "name": "countOfAgree",
          "type": "uint256"
        }
      ],
      "payable": false,
      "stateMutability": "view",
      "type": "function"
    },
    {
      "constant": false,
      "inputs": [
        {
          "internalType": "bool[]",
          "name": "_votedResult",
          "type": "bool[]"
        }
      ],
      "name": "voting",
      "outputs": [],
      "payable": false,
      "stateMutability": "nonpayable",
      "type": "function"
    }
  ],
  "bytecode": "0x608060405234801561001057600080fd5b506040516104ef3803806104ef8339818101604052604081101561003357600080fd5b810190808051604051939291908464010000000082111561005357600080fd5b8382019150602082018581111561006957600080fd5b825186602082028301116401000000008211171561008657600080fd5b8083526020830192505050908051906020019060200280838360005b838110156100bd5780820151818401526020810190506100a2565b5050505090500160405260200180519060200190929190505050806000806101000a81548173ffffffffffffffffffffffffffffffffffffffff021916908373ffffffffffffffffffffffffffffffffffffffff16021790555060008090505b82518110156101b1576001604051806060016040528085848151811061013f57fe5b6020026020010151815260200160008152602001600081525090806001815401808255809150509060018203906000526020600020906003020160009091929091909150600082015181600001556020820151816001015560408201518160020155505050808060010191505061011d565b50505061032c806101c36000396000f3fe608060405234801561001057600080fd5b50600436106100365760003560e01c80635bf5ff051461003b578063d1dbe7d8146100f3575b600080fd5b6100f16004803603602081101561005157600080fd5b810190808035906020019064010000000081111561006e57600080fd5b82018360208201111561008057600080fd5b803590602001918460208302840111640100000000831117156100a257600080fd5b919080806020026020016040519081016040528093929190818152602001838360200280828437600081840152601f19601f820116905080830192505050505050509192919290505050610143565b005b61011f6004803603602081101561010957600080fd5b81019080803590602001909291905050506102c0565b60405180848152602001838152602001828152602001935050505060405180910390f35b60008060009054906101000a900473ffffffffffffffffffffffffffffffffffffffff16905060008173ffffffffffffffffffffffffffffffffffffffff166370a08231336040518263ffffffff1660e01b8152600401808273ffffffffffffffffffffffffffffffffffffffff1673ffffffffffffffffffffffffffffffffffffffff16815260200191505060206040518083038186803b1580156101e857600080fd5b505afa1580156101fc573d6000803e3d6000fd5b505050506040513d602081101561021257600080fd5b8101908080519060200190929190505050905060008090505b83518110156102ba57816001828154811061024257fe5b9060005260206000209060030201600101600082825401925050819055506001151584828151811061027057fe5b6020026020010151151514156102ad57816001828154811061028e57fe5b9060005260206000209060030201600201600082825401925050819055505b808060010191505061022b565b50505050565b600181815481106102cd57fe5b9060005260206000209060030201600091509050806000015490806001015490806002015490508356fea265627a7a72315820a6a6f0d5b295e9c05a10d60053d11977e704f563988129aa398296beae91aa1064736f6c634300050d0032",
  "source": "pragma solidity ^0.5.13;\n\n\ncontract TokenInterface {\n  function balanceOf(address account) external view returns (uint256);\n}\n\ncontract Vote {\n    address tokenCA;\n    \n    // 이것은 단일 제안에 대한 유형입니다.\n    struct Proposal {\n        bytes32 name;   // 간단한 명칭 (최대 32바이트)\n        uint voteCount; // 누적 투표 수\n        uint countOfAgree; // 찬성 수\n    }\n    \n    Proposal[] public Proposals; // Proposals에 Proposal을 배열로 기록한다\n\n    \n    constructor(bytes32[] memory _proposals, address _tokenCA) public {\n           tokenCA = _tokenCA;\n           for(uint i = 0; i < _proposals.length; i ++) {\n                Proposals.push(Proposal({\n            name: _proposals[i],\n            voteCount: 0,\n            countOfAgree: 0\n        }));\n           }\n    }\n    \n    function voting( bool[] memory _votedResult) public {\n        \n     TokenInterface TokenContract = TokenInterface(tokenCA);\n     \n     uint balance = TokenContract.balanceOf(msg.sender);\n    \n     for (uint i = 0; i < _votedResult.length; i++){\n       Proposals[i].voteCount += balance;\n       if(_votedResult[i] == true){\n           Proposals[i].countOfAgree +=balance;\n             }\n        }\n     }\n}",
  "sourcePath": "/Users/kimkihong/project/ethereum/joux2/contracts/Vote.sol",
  "compiler": {
    "name": "solc",
    "version": "0.5.13+commit.5b0b510c.Emscripten.clang"
  },
  "schemaVersion": "3.0.16",
  "updatedAt": "2019-11-19T04:37:32.024Z",
  "devdoc": {
    "methods": {}
  },
  "userdoc": {
    "methods": {}
  }
}